:100000000C9434000C9446000C9446000C9446006A
:100010000C9446000C9446000C9446000C94460048
:100020000C9446000C9446000C9446000C94460038
:100030000C9446000C9446000C9446000C94460028
:100040000C9446000C9446000C9446000C94460018
:100050000C9446000C9446000C9446000C94460008
:100060000C9446000C94460011241FBECFEFD8E03C
:10007000DEBFCDBF21E0A0E0B1E001C01D92A13004
:10008000B207E1F70E94AC000C94B1000C940000A0
:1000900085B191E0892785B90895CF92DF92EF92DB
:1000A000FF92CF93DF9300D000D0CDB7DEB7198297
:1000B0001A821B821C82C12C85E3D82E8CE0E82E8C
:1000C000F12C89819A81AB81BC8180349244AF400C
:1000D000B1055CF00F900F900F900F90DF91CF91D2
:1000E000FF90EF90DF90CF9008954A990FC08981DB
:1000F0009A81AB81BC8181159543AC40B10534F444
:10010000C982DA82EB82FC820E94480089819A814E
:10011000AB81BC810196A11DB11D89839A83AB83FC
:10012000BC83CFCF8BB12091000190E1299F90013A
:1001300011248F70822B8BB9809100018F5F809387
:1001400000010C944D008AB1806F8AB95298209AB0
:100150008BB1807F8BB908950E94A3000E9492000A
:06016000FDCFF894FFCF73
:00000001FF
